{
  "address": "0x5FbDB2315678afecb367f032d93F642f64180aa3",
  "abi": [
    {
      "inputs": [
        {
          "internalType": "address payable[]",
          "name": "_owners",
          "type": "address[]"
        },
        {
          "internalType": "uint256",
          "name": "_initialTxChecks",
          "type": "uint256"
        }
      ],
      "stateMutability": "nonpayable",
      "type": "constructor"
    },
    {
      "stateMutability": "payable",
      "type": "fallback"
    },
    {
      "inputs": [
        {
          "internalType": "uint256",
          "name": "txId",
          "type": "uint256"
        }
      ],
      "name": "confirmTx",
      "outputs": [],
      "stateMutability": "nonpayable",
      "type": "function"
    },
    {
      "inputs": [],
      "name": "deposit",
      "outputs": [],
      "stateMutability": "payable",
      "type": "function"
    },
    {
      "inputs": [
        {
          "internalType": "address",
          "name": "",
          "type": "address"
        }
      ],
      "name": "doubleOwner",
      "outputs": [
        {
          "internalType": "bool",
          "name": "",
          "type": "bool"
        }
      ],
      "stateMutability": "view",
      "type": "function"
    },
    {
      "inputs": [
        {
          "internalType": "uint256",
          "name": "txId",
          "type": "uint256"
        }
      ],
      "name": "executeTx",
      "outputs": [
        {
          "internalType": "bool",
          "name": "",
          "type": "bool"
        }
      ],
      "stateMutability": "nonpayable",
      "type": "function"
    },
    {
      "inputs": [
        {
          "internalType": "address",
          "name": "",
          "type": "address"
        }
      ],
      "name": "isOwner",
      "outputs": [
        {
          "internalType": "bool",
          "name": "",
          "type": "bool"
        }
      ],
      "stateMutability": "view",
      "type": "function"
    },
    {
      "inputs": [],
      "name": "minTxChecks",
      "outputs": [
        {
          "internalType": "uint256",
          "name": "",
          "type": "uint256"
        }
      ],
      "stateMutability": "view",
      "type": "function"
    },
    {
      "inputs": [
        {
          "internalType": "uint256",
          "name": "",
          "type": "uint256"
        }
      ],
      "name": "numConfirmations",
      "outputs": [
        {
          "internalType": "uint256",
          "name": "",
          "type": "uint256"
        }
      ],
      "stateMutability": "view",
      "type": "function"
    },
    {
      "inputs": [
        {
          "internalType": "address",
          "name": "",
          "type": "address"
        },
        {
          "internalType": "uint256",
          "name": "",
          "type": "uint256"
        }
      ],
      "name": "ownerA_confirmed_TxB",
      "outputs": [
        {
          "internalType": "bool",
          "name": "",
          "type": "bool"
        }
      ],
      "stateMutability": "view",
      "type": "function"
    },
    {
      "inputs": [
        {
          "internalType": "address",
          "name": "",
          "type": "address"
        }
      ],
      "name": "ownerPosition",
      "outputs": [
        {
          "internalType": "uint256",
          "name": "",
          "type": "uint256"
        }
      ],
      "stateMutability": "view",
      "type": "function"
    },
    {
      "inputs": [
        {
          "internalType": "uint256",
          "name": "",
          "type": "uint256"
        }
      ],
      "name": "owners",
      "outputs": [
        {
          "internalType": "address payable",
          "name": "",
          "type": "address"
        }
      ],
      "stateMutability": "view",
      "type": "function"
    },
    {
      "inputs": [
        {
          "internalType": "address payable",
          "name": "_to",
          "type": "address"
        },
        {
          "internalType": "uint256",
          "name": "_value",
          "type": "uint256"
        },
        {
          "internalType": "bool",
          "name": "_changeOwners",
          "type": "bool"
        },
        {
          "internalType": "bool",
          "name": "_add1_del0",
          "type": "bool"
        },
        {
          "internalType": "bool",
          "name": "_changeNumConfirmations",
          "type": "bool"
        }
      ],
      "name": "proposeTx",
      "outputs": [],
      "stateMutability": "nonpayable",
      "type": "function"
    },
    {
      "inputs": [
        {
          "internalType": "uint256",
          "name": "txId",
          "type": "uint256"
        }
      ],
      "name": "revokeConfirmation",
      "outputs": [],
      "stateMutability": "nonpayable",
      "type": "function"
    },
    {
      "inputs": [
        {
          "internalType": "uint256",
          "name": "",
          "type": "uint256"
        }
      ],
      "name": "txExecuted",
      "outputs": [
        {
          "internalType": "bool",
          "name": "",
          "type": "bool"
        }
      ],
      "stateMutability": "view",
      "type": "function"
    },
    {
      "inputs": [
        {
          "internalType": "uint256",
          "name": "",
          "type": "uint256"
        }
      ],
      "name": "txHistory",
      "outputs": [
        {
          "internalType": "address",
          "name": "to",
          "type": "address"
        },
        {
          "internalType": "uint256",
          "name": "value",
          "type": "uint256"
        },
        {
          "internalType": "address",
          "name": "owner",
          "type": "address"
        },
        {
          "internalType": "bool",
          "name": "executed",
          "type": "bool"
        },
        {
          "internalType": "uint256",
          "name": "confirmations",
          "type": "uint256"
        },
        {
          "internalType": "uint256",
          "name": "txId",
          "type": "uint256"
        },
        {
          "internalType": "bool",
          "name": "changeOwners",
          "type": "bool"
        },
        {
          "internalType": "bool",
          "name": "add1_del0",
          "type": "bool"
        },
        {
          "internalType": "bool",
          "name": "changeNumConfirmations",
          "type": "bool"
        }
      ],
      "stateMutability": "view",
      "type": "function"
    },
    {
      "stateMutability": "payable",
      "type": "receive"
    }
  ],
  "transactionHash": "0xeaa20192f8f9d933e13bda87297a09c736648ad2c3a192fc3fa22325eca93804",
  "args": [
    [
      "0xf39Fd6e51aad88F6F4ce6aB8827279cffFb92266",
      "0x70997970C51812dc3A010C7d01b50e0d17dc79C8"
    ],
    2
  ],
  "numDeployments": 1,
  "solcInputHash": "126b0a97f714aa693a381594e2414c1a",
  "bytecode": "0x60806040523480156200001157600080fd5b5060405162002845380380620028458339818101604052810190620000379190620005df565b80825110156200007e576040517f08c379a00000000000000000000000000000000000000000000000000000000081526004016200007590620006cc565b60405180910390fd5b6000825111620000c5576040517f08c379a0000000000000000000000000000000000000000000000000000000008152600401620000bc9062000764565b60405180910390fd5b60018110156200010c576040517f08c379a00000000000000000000000000000000000000000000000000000000081526004016200010390620007fc565b60405180910390fd5b60005b8251811015620003a65760008382815181106200013157620001306200081e565b5b60200260200101519050600073ffffffffffffffffffffffffffffffffffffffff168173ffffffffffffffffffffffffffffffffffffffff1603620001ad576040517f08c379a0000000000000000000000000000000000000000000000000000000008152600401620001a4906200089d565b60405180910390fd5b6000808273ffffffffffffffffffffffffffffffffffffffff1673ffffffffffffffffffffffffffffffffffffffff16815260200190815260200160002060009054906101000a900460ff16156200023c576040517f08c379a000000000000000000000000000000000000000000000000000000000815260040162000233906200090f565b60405180910390fd5b60016000808373ffffffffffffffffffffffffffffffffffffffff1673ffffffffffffffffffffffffffffffffffffffff16815260200190815260200160002060006101000a81548160ff021916908315150217905550600680549050600560008373ffffffffffffffffffffffffffffffffffffffff1673ffffffffffffffffffffffffffffffffffffffff168152602001908152602001600020819055506006819080600181540180825580915050600190039060005260206000200160009091909190916101000a81548173ffffffffffffffffffffffffffffffffffffffff021916908373ffffffffffffffffffffffffffffffffffffffff1602179055506001600260008373ffffffffffffffffffffffffffffffffffffffff1673ffffffffffffffffffffffffffffffffffffffff16815260200190815260200160002060006101000a81548160ff0219169083151502179055505080806001019150506200010f565b5080600781905550505062000931565b6000604051905090565b600080fd5b600080fd5b600080fd5b6000601f19601f8301169050919050565b7f4e487b7100000000000000000000000000000000000000000000000000000000600052604160045260246000fd5b6200041a82620003cf565b810181811067ffffffffffffffff821117156200043c576200043b620003e0565b5b80604052505050565b600062000451620003b6565b90506200045f82826200040f565b919050565b600067ffffffffffffffff821115620004825762000481620003e0565b5b602082029050602081019050919050565b600080fd5b600073ffffffffffffffffffffffffffffffffffffffff82169050919050565b6000620004c58262000498565b9050919050565b620004d781620004b8565b8114620004e357600080fd5b50565b600081519050620004f781620004cc565b92915050565b6000620005146200050e8462000464565b62000445565b905080838252602082019050602084028301858111156200053a576200053962000493565b5b835b81811015620005675780620005528882620004e6565b8452602084019350506020810190506200053c565b5050509392505050565b600082601f830112620005895762000588620003ca565b5b81516200059b848260208601620004fd565b91505092915050565b6000819050919050565b620005b981620005a4565b8114620005c557600080fd5b50565b600081519050620005d981620005ae565b92915050565b60008060408385031215620005f957620005f8620003c0565b5b600083015167ffffffffffffffff8111156200061a5762000619620003c5565b5b620006288582860162000571565b92505060206200063b85828601620005c8565b9150509250929050565b600082825260208201905092915050565b7f546865726520617265206d6f7265207478436f6e6669726d6174696f6e73207260008201527f65717569726564207468616e207369676e657273210000000000000000000000602082015250565b6000620006b460358362000645565b9150620006c18262000656565b604082019050919050565b60006020820190508181036000830152620006e781620006a5565b9050919050565b7f4e6f2061646472657373206c69737420686173206265656e207061737365642060008201527f746f2074686520636f6e7374727563746f720000000000000000000000000000602082015250565b60006200074c60328362000645565b91506200075982620006ee565b604082019050919050565b600060208201905081810360008301526200077f816200073d565b9050919050565b7f4174206c65617374206f6e65206f776e6572206e6565647320746f207369676e60008201527f2069742100000000000000000000000000000000000000000000000000000000602082015250565b6000620007e460248362000645565b9150620007f18262000786565b604082019050919050565b600060208201905081810360008301526200081781620007d5565b9050919050565b7f4e487b7100000000000000000000000000000000000000000000000000000000600052603260045260246000fd5b7f4e756c6c206164647265737320697320696e76616c69642e0000000000000000600082015250565b60006200088560188362000645565b915062000892826200084d565b602082019050919050565b60006020820190508181036000830152620008b88162000876565b9050919050565b7f5468657265206973206120646f75626c65206164647265737320696e7075742e600082015250565b6000620008f760208362000645565b91506200090482620008bf565b602082019050919050565b600060208201905081810360008301526200092a81620008e8565b9050919050565b611f0480620009416000396000f3fe6080604052600436106100e15760003560e01c8063801be0601161007f578063b205590d11610059578063b205590d14610318578063c518cd9314610355578063d0e30db014610392578063ef51b9c31461039c576100e8565b8063801be0601461028957806399f80524146102b2578063a093c822146102ef576100e8565b8063528a0a75116100bb578063528a0a751461018d57806354b5fe80146101ca57806367e8786e1461020757806375fcbd8614610244576100e8565b8063025e7c27146100ea57806320ea8d86146101275780632f54bf6e14610150576100e8565b366100e857005b005b3480156100f657600080fd5b50610111600480360381019061010c91906115f5565b6103c7565b60405161011e9190611663565b60405180910390f35b34801561013357600080fd5b5061014e600480360381019061014991906115f5565b610406565b005b34801561015c57600080fd5b50610177600480360381019061017291906116bc565b61063b565b6040516101849190611704565b60405180910390f35b34801561019957600080fd5b506101b460048036038101906101af91906116bc565b61065b565b6040516101c19190611704565b60405180910390f35b3480156101d657600080fd5b506101f160048036038101906101ec91906115f5565b61067b565b6040516101fe9190611704565b60405180910390f35b34801561021357600080fd5b5061022e600480360381019061022991906115f5565b610a9e565b60405161023b9190611704565b60405180910390f35b34801561025057600080fd5b5061026b600480360381019061026691906115f5565b610abe565b6040516102809998979695949392919061173d565b60405180910390f35b34801561029557600080fd5b506102b060048036038101906102ab91906115f5565b610b90565b005b3480156102be57600080fd5b506102d960048036038101906102d491906117ca565b610df2565b6040516102e69190611704565b60405180910390f35b3480156102fb57600080fd5b5061031660048036038101906103119190611862565b610e21565b005b34801561032457600080fd5b5061033f600480360381019061033a91906116bc565b6112ea565b60405161034c91906118dd565b60405180910390f35b34801561036157600080fd5b5061037c600480360381019061037791906115f5565b611302565b60405161038991906118dd565b60405180910390f35b61039a61131a565b005b3480156103a857600080fd5b506103b161131c565b6040516103be91906118dd565b60405180910390f35b600681815481106103d757600080fd5b906000526020600020016000915054906101000a900473ffffffffffffffffffffffffffffffffffffffff1681565b600260003373ffffffffffffffffffffffffffffffffffffffff1673ffffffffffffffffffffffffffffffffffffffff16815260200190815260200160002060009054906101000a900460ff16610492576040517f08c379a000000000000000000000000000000000000000000000000000000000815260040161048990611955565b60405180910390fd5b806003600082815260200190815260200160002060009054906101000a900460ff16156104f4576040517f08c379a00000000000000000000000000000000000000000000000000000000081526004016104eb906119e7565b60405180910390fd5b600160003373ffffffffffffffffffffffffffffffffffffffff1673ffffffffffffffffffffffffffffffffffffffff168152602001908152602001600020600083815260200190815260200160002060009054906101000a900460ff16610591576040517f08c379a000000000000000000000000000000000000000000000000000000000815260040161058890611a79565b60405180910390fd5b6001600883815481106105a7576105a6611a99565b5b906000526020600020906006020160030160008282546105c79190611af7565b925050819055506000600160003373ffffffffffffffffffffffffffffffffffffffff1673ffffffffffffffffffffffffffffffffffffffff168152602001908152602001600020600084815260200190815260200160002060006101000a81548160ff0219169083151502179055505050565b60026020528060005260406000206000915054906101000a900460ff1681565b60006020528060005260406000206000915054906101000a900460ff1681565b6000600260003373ffffffffffffffffffffffffffffffffffffffff1673ffffffffffffffffffffffffffffffffffffffff16815260200190815260200160002060009054906101000a900460ff16610709576040517f08c379a000000000000000000000000000000000000000000000000000000000815260040161070090611955565b60405180910390fd5b816003600082815260200190815260200160002060009054906101000a900460ff161561076b576040517f08c379a0000000000000000000000000000000000000000000000000000000008152600401610762906119e7565b60405180910390fd5b82600754600460008381526020019081526020016000205410156107c4576040517f08c379a00000000000000000000000000000000000000000000000000000000081526004016107bb90611b9d565b60405180910390fd5b600884815481106107d8576107d7611a99565b5b906000526020600020906006020160050160009054906101000a900460ff16156108df57600884815481106108105761080f611a99565b5b906000526020600020906006020160050160019054906101000a900460ff1615610887576108826008858154811061084b5761084a611a99565b5b906000526020600020906006020160000160009054906101000a900473ffffffffffffffffffffffffffffffffffffffff16611322565b6108d6565b6108d56008858154811061089e5761089d611a99565b5b906000526020600020906006020160000160009054906101000a900473ffffffffffffffffffffffffffffffffffffffff166113d1565b5b60019250610a97565b600884815481106108f3576108f2611a99565b5b906000526020600020906006020160050160029054906101000a900460ff1615610946576109456008858154811061092e5761092d611a99565b5b9060005260206000209060060201600101546115b0565b5b60006008858154811061095c5761095b611a99565b5b906000526020600020906006020160000160009054906101000a900473ffffffffffffffffffffffffffffffffffffffff1690506000600886815481106109a6576109a5611a99565b5b906000526020600020906006020160010154905060008273ffffffffffffffffffffffffffffffffffffffff16826040516109e090611bee565b60006040518083038185875af1925050503d8060008114610a1d576040519150601f19603f3d011682016040523d82523d6000602084013e610a22565b606091505b50509050600160088881548110610a3c57610a3b611a99565b5b906000526020600020906006020160020160146101000a81548160ff02191690831515021790555060016003600089815260200190815260200160002060006101000a81548160ff0219169083151502179055508095505050505b5050919050565b60036020528060005260406000206000915054906101000a900460ff1681565b60088181548110610ace57600080fd5b90600052602060002090600602016000915090508060000160009054906101000a900473ffffffffffffffffffffffffffffffffffffffff16908060010154908060020160009054906101000a900473ffffffffffffffffffffffffffffffffffffffff16908060020160149054906101000a900460ff16908060030154908060040154908060050160009054906101000a900460ff16908060050160019054906101000a900460ff16908060050160029054906101000a900460ff16905089565b600260003373ffffffffffffffffffffffffffffffffffffffff1673ffffffffffffffffffffffffffffffffffffffff16815260200190815260200160002060009054906101000a900460ff16610c1c576040517f08c379a0000000000000000000000000000000000000000000000000000000008152600401610c1390611955565b60405180910390fd5b80600160003373ffffffffffffffffffffffffffffffffffffffff1673ffffffffffffffffffffffffffffffffffffffff168152602001908152602001600020600082815260200190815260200160002060009054906101000a900460ff1615610cbb576040517f08c379a0000000000000000000000000000000000000000000000000000000008152600401610cb290611c75565b60405180910390fd5b816003600082815260200190815260200160002060009054906101000a900460ff1615610d1d576040517f08c379a0000000000000000000000000000000000000000000000000000000008152600401610d14906119e7565b60405180910390fd5b600160088481548110610d3357610d32611a99565b5b90600052602060002090600602016003016000828254610d539190611c95565b925050819055506001600460008581526020019081526020016000206000828254610d7e9190611c95565b9250508190555060018060003373ffffffffffffffffffffffffffffffffffffffff1673ffffffffffffffffffffffffffffffffffffffff168152602001908152602001600020600085815260200190815260200160002060006101000a81548160ff021916908315150217905550505050565b60016020528160005260406000206020528060005260406000206000915091509054906101000a900460ff1681565b600260003373ffffffffffffffffffffffffffffffffffffffff1673ffffffffffffffffffffffffffffffffffffffff16815260200190815260200160002060009054906101000a900460ff16610ead576040517f08c379a0000000000000000000000000000000000000000000000000000000008152600401610ea490611955565b60405180910390fd5b60006040518061012001604052808773ffffffffffffffffffffffffffffffffffffffff1681526020018681526020013373ffffffffffffffffffffffffffffffffffffffff16815260200160001515815260200160018152602001600880549050815260200185151581526020018415158152602001831515815250905081610fa557600073ffffffffffffffffffffffffffffffffffffffff168673ffffffffffffffffffffffffffffffffffffffff1603610fa0576040517f08c379a0000000000000000000000000000000000000000000000000000000008152600401610f9790611d3b565b60405180910390fd5b611022565b6000816000019073ffffffffffffffffffffffffffffffffffffffff16908173ffffffffffffffffffffffffffffffffffffffff168152505060008511611021576040517f08c379a000000000000000000000000000000000000000000000000000000000815260040161101890611da7565b60405180910390fd5b5b8361106f576000851161106a576040517f08c379a000000000000000000000000000000000000000000000000000000000815260040161106190611e13565b60405180910390fd5b6110ea565b6000816020018181525050600073ffffffffffffffffffffffffffffffffffffffff168673ffffffffffffffffffffffffffffffffffffffff16036110e9576040517f08c379a00000000000000000000000000000000000000000000000000000000081526004016110e090611e7f565b60405180910390fd5b5b60018060003373ffffffffffffffffffffffffffffffffffffffff1673ffffffffffffffffffffffffffffffffffffffff1681526020019081526020016000206000600880549050815260200190815260200160002060006101000a81548160ff021916908315150217905550600160046000600880549050815260200190815260200160002060008282546111809190611c95565b92505081905550600881908060018154018082558091505060019003906000526020600020906006020160009091909190915060008201518160000160006101000a81548173ffffffffffffffffffffffffffffffffffffffff021916908373ffffffffffffffffffffffffffffffffffffffff1602179055506020820151816001015560408201518160020160006101000a81548173ffffffffffffffffffffffffffffffffffffffff021916908373ffffffffffffffffffffffffffffffffffffffff16021790555060608201518160020160146101000a81548160ff0219169083151502179055506080820151816003015560a0820151816004015560c08201518160050160006101000a81548160ff02191690831515021790555060e08201518160050160016101000a81548160ff0219169083151502179055506101008201518160050160026101000a81548160ff0219169083151502179055505050505050505050565b60056020528060005260406000206000915090505481565b60046020528060005260406000206000915090505481565b565b60075481565b600680549050600560008373ffffffffffffffffffffffffffffffffffffffff1673ffffffffffffffffffffffffffffffffffffffff168152602001908152602001600020819055506006819080600181540180825580915050600190039060005260206000200160009091909190916101000a81548173ffffffffffffffffffffffffffffffffffffffff021916908373ffffffffffffffffffffffffffffffffffffffff16021790555050565b6000600560008373ffffffffffffffffffffffffffffffffffffffff1673ffffffffffffffffffffffffffffffffffffffff1681526020019081526020016000205490505b60016006805490506114289190611af7565b81101561156557600660018261143e9190611c95565b8154811061144f5761144e611a99565b5b9060005260206000200160009054906101000a900473ffffffffffffffffffffffffffffffffffffffff166006828154811061148e5761148d611a99565b5b9060005260206000200160006101000a81548173ffffffffffffffffffffffffffffffffffffffff021916908373ffffffffffffffffffffffffffffffffffffffff1602179055508060056000600684815481106114ef576114ee611a99565b5b9060005260206000200160009054906101000a900473ffffffffffffffffffffffffffffffffffffffff1673ffffffffffffffffffffffffffffffffffffffff1673ffffffffffffffffffffffffffffffffffffffff168152602001908152602001600020819055508080600101915050611416565b50600680548061157857611577611e9f565b5b6001900381819060005260206000200160006101000a81549073ffffffffffffffffffffffffffffffffffffffff0219169055905550565b8060078190555050565b600080fd5b6000819050919050565b6115d2816115bf565b81146115dd57600080fd5b50565b6000813590506115ef816115c9565b92915050565b60006020828403121561160b5761160a6115ba565b5b6000611619848285016115e0565b91505092915050565b600073ffffffffffffffffffffffffffffffffffffffff82169050919050565b600061164d82611622565b9050919050565b61165d81611642565b82525050565b60006020820190506116786000830184611654565b92915050565b600061168982611622565b9050919050565b6116998161167e565b81146116a457600080fd5b50565b6000813590506116b681611690565b92915050565b6000602082840312156116d2576116d16115ba565b5b60006116e0848285016116a7565b91505092915050565b60008115159050919050565b6116fe816116e9565b82525050565b600060208201905061171960008301846116f5565b92915050565b6117288161167e565b82525050565b611737816115bf565b82525050565b600061012082019050611753600083018c61171f565b611760602083018b61172e565b61176d604083018a61171f565b61177a60608301896116f5565b611787608083018861172e565b61179460a083018761172e565b6117a160c08301866116f5565b6117ae60e08301856116f5565b6117bc6101008301846116f5565b9a9950505050505050505050565b600080604083850312156117e1576117e06115ba565b5b60006117ef858286016116a7565b9250506020611800858286016115e0565b9150509250929050565b61181381611642565b811461181e57600080fd5b50565b6000813590506118308161180a565b92915050565b61183f816116e9565b811461184a57600080fd5b50565b60008135905061185c81611836565b92915050565b600080600080600060a0868803121561187e5761187d6115ba565b5b600061188c88828901611821565b955050602061189d888289016115e0565b94505060406118ae8882890161184d565b93505060606118bf8882890161184d565b92505060806118d08882890161184d565b9150509295509295909350565b60006020820190506118f2600083018461172e565b92915050565b600082825260208201905092915050565b7f4e6f74204f776e6572202d205065726d697373696f6e2044656e696564000000600082015250565b600061193f601d836118f8565b915061194a82611909565b602082019050919050565b6000602082019050818103600083015261196e81611932565b9050919050565b7f54686973207472616e73616374696f6e2077617320616c72656164792065786560008201527f6375746564000000000000000000000000000000000000000000000000000000602082015250565b60006119d16025836118f8565b91506119dc82611975565b604082019050919050565b60006020820190508181036000830152611a00816119c4565b9050919050565b7f54686973206f776e657220646964206e6f7420636f6e6669726d20746869732060008201527f7472616e73616374696f6e2070726576696f75736c7900000000000000000000602082015250565b6000611a636036836118f8565b9150611a6e82611a07565b604082019050919050565b60006020820190508181036000830152611a9281611a56565b9050919050565b7f4e487b7100000000000000000000000000000000000000000000000000000000600052603260045260246000fd5b7f4e487b7100000000000000000000000000000000000000000000000000000000600052601160045260246000fd5b6000611b02826115bf565b9150611b0d836115bf565b9250828203905081811115611b2557611b24611ac8565b5b92915050565b7f4e6f7420656e6f756768206f776e657273206861766520636f6e6669726d656460008201527f202d2054782063616e6e6f742065786563757465000000000000000000000000602082015250565b6000611b876034836118f8565b9150611b9282611b2b565b604082019050919050565b60006020820190508181036000830152611bb681611b7a565b9050919050565b600081905092915050565b50565b6000611bd8600083611bbd565b9150611be382611bc8565b600082019050919050565b6000611bf982611bcb565b9150819050919050565b7f54686973206f776e65722068617320616c726561647920636f6e6669726d656460008201527f2074686973207472616e73616374696f6e000000000000000000000000000000602082015250565b6000611c5f6031836118f8565b9150611c6a82611c03565b604082019050919050565b60006020820190508181036000830152611c8e81611c52565b9050919050565b6000611ca0826115bf565b9150611cab836115bf565b9250828201905080821115611cc357611cc2611ac8565b5b92915050565b7f4e6f206275726e696e67206e6f7220616464696e67207068616e746f6d206f7760008201527f6e6572732e000000000000000000000000000000000000000000000000000000602082015250565b6000611d256025836118f8565b9150611d3082611cc9565b604082019050919050565b60006020820190508181036000830152611d5481611d18565b9050919050565b7f4e6f74207a65726f20636f6e6669726d6174696f6e7321000000000000000000600082015250565b6000611d916017836118f8565b9150611d9c82611d5b565b602082019050919050565b60006020820190508181036000830152611dc081611d84565b9050919050565b7f4e6f207472616e73666572000000000000000000000000000000000000000000600082015250565b6000611dfd600b836118f8565b9150611e0882611dc7565b602082019050919050565b60006020820190508181036000830152611e2c81611df0565b9050919050565b7f4e6f7420616464696e67207068616e746f6d206f776e6572732e000000000000600082015250565b6000611e69601a836118f8565b9150611e7482611e33565b602082019050919050565b60006020820190508181036000830152611e9881611e5c565b9050919050565b7f4e487b7100000000000000000000000000000000000000000000000000000000600052603160045260246000fdfea264697066735822122009ab70285f83c1b175f93ab631ad137ff9f6fb2efb4944465f671ce17619122664736f6c63430008180033",
  "devdoc": {
    "kind": "dev",
    "methods": {},
    "version": 1
  },
  "userdoc": {
    "kind": "user",
    "methods": {
      "proposeTx(address,uint256,bool,bool,bool)": {
        "notice": "------------------ "
      }
    },
    "version": 1
  },
  "storageLayout": {
    "storage": [
      {
        "astId": 5,
        "contract": "contracts/MultiSig.sol:MultiSigWallet",
        "label": "doubleOwner",
        "offset": 0,
        "slot": "0",
        "type": "t_mapping(t_address,t_bool)"
      },
      {
        "astId": 11,
        "contract": "contracts/MultiSig.sol:MultiSigWallet",
        "label": "ownerA_confirmed_TxB",
        "offset": 0,
        "slot": "1",
        "type": "t_mapping(t_address,t_mapping(t_uint256,t_bool))"
      },
      {
        "astId": 15,
        "contract": "contracts/MultiSig.sol:MultiSigWallet",
        "label": "isOwner",
        "offset": 0,
        "slot": "2",
        "type": "t_mapping(t_address,t_bool)"
      },
      {
        "astId": 19,
        "contract": "contracts/MultiSig.sol:MultiSigWallet",
        "label": "txExecuted",
        "offset": 0,
        "slot": "3",
        "type": "t_mapping(t_uint256,t_bool)"
      },
      {
        "astId": 23,
        "contract": "contracts/MultiSig.sol:MultiSigWallet",
        "label": "numConfirmations",
        "offset": 0,
        "slot": "4",
        "type": "t_mapping(t_uint256,t_uint256)"
      },
      {
        "astId": 27,
        "contract": "contracts/MultiSig.sol:MultiSigWallet",
        "label": "ownerPosition",
        "offset": 0,
        "slot": "5",
        "type": "t_mapping(t_address,t_uint256)"
      },
      {
        "astId": 49,
        "contract": "contracts/MultiSig.sol:MultiSigWallet",
        "label": "owners",
        "offset": 0,
        "slot": "6",
        "type": "t_array(t_address_payable)dyn_storage"
      },
      {
        "astId": 51,
        "contract": "contracts/MultiSig.sol:MultiSigWallet",
        "label": "minTxChecks",
        "offset": 0,
        "slot": "7",
        "type": "t_uint256"
      },
      {
        "astId": 153,
        "contract": "contracts/MultiSig.sol:MultiSigWallet",
        "label": "txHistory",
        "offset": 0,
        "slot": "8",
        "type": "t_array(t_struct(Tx)46_storage)dyn_storage"
      }
    ],
    "types": {
      "t_address": {
        "encoding": "inplace",
        "label": "address",
        "numberOfBytes": "20"
      },
      "t_address_payable": {
        "encoding": "inplace",
        "label": "address payable",
        "numberOfBytes": "20"
      },
      "t_array(t_address_payable)dyn_storage": {
        "base": "t_address_payable",
        "encoding": "dynamic_array",
        "label": "address payable[]",
        "numberOfBytes": "32"
      },
      "t_array(t_struct(Tx)46_storage)dyn_storage": {
        "base": "t_struct(Tx)46_storage",
        "encoding": "dynamic_array",
        "label": "struct MultiSigWallet.Tx[]",
        "numberOfBytes": "32"
      },
      "t_bool": {
        "encoding": "inplace",
        "label": "bool",
        "numberOfBytes": "1"
      },
      "t_mapping(t_address,t_bool)": {
        "encoding": "mapping",
        "key": "t_address",
        "label": "mapping(address => bool)",
        "numberOfBytes": "32",
        "value": "t_bool"
      },
      "t_mapping(t_address,t_mapping(t_uint256,t_bool))": {
        "encoding": "mapping",
        "key": "t_address",
        "label": "mapping(address => mapping(uint256 => bool))",
        "numberOfBytes": "32",
        "value": "t_mapping(t_uint256,t_bool)"
      },
      "t_mapping(t_address,t_uint256)": {
        "encoding": "mapping",
        "key": "t_address",
        "label": "mapping(address => uint256)",
        "numberOfBytes": "32",
        "value": "t_uint256"
      },
      "t_mapping(t_uint256,t_bool)": {
        "encoding": "mapping",
        "key": "t_uint256",
        "label": "mapping(uint256 => bool)",
        "numberOfBytes": "32",
        "value": "t_bool"
      },
      "t_mapping(t_uint256,t_uint256)": {
        "encoding": "mapping",
        "key": "t_uint256",
        "label": "mapping(uint256 => uint256)",
        "numberOfBytes": "32",
        "value": "t_uint256"
      },
      "t_struct(Tx)46_storage": {
        "encoding": "inplace",
        "label": "struct MultiSigWallet.Tx",
        "members": [
          {
            "astId": 29,
            "contract": "contracts/MultiSig.sol:MultiSigWallet",
            "label": "to",
            "offset": 0,
            "slot": "0",
            "type": "t_address"
          },
          {
            "astId": 31,
            "contract": "contracts/MultiSig.sol:MultiSigWallet",
            "label": "value",
            "offset": 0,
            "slot": "1",
            "type": "t_uint256"
          },
          {
            "astId": 33,
            "contract": "contracts/MultiSig.sol:MultiSigWallet",
            "label": "owner",
            "offset": 0,
            "slot": "2",
            "type": "t_address"
          },
          {
            "astId": 35,
            "contract": "contracts/MultiSig.sol:MultiSigWallet",
            "label": "executed",
            "offset": 20,
            "slot": "2",
            "type": "t_bool"
          },
          {
            "astId": 37,
            "contract": "contracts/MultiSig.sol:MultiSigWallet",
            "label": "confirmations",
            "offset": 0,
            "slot": "3",
            "type": "t_uint256"
          },
          {
            "astId": 39,
            "contract": "contracts/MultiSig.sol:MultiSigWallet",
            "label": "txId",
            "offset": 0,
            "slot": "4",
            "type": "t_uint256"
          },
          {
            "astId": 41,
            "contract": "contracts/MultiSig.sol:MultiSigWallet",
            "label": "changeOwners",
            "offset": 0,
            "slot": "5",
            "type": "t_bool"
          },
          {
            "astId": 43,
            "contract": "contracts/MultiSig.sol:MultiSigWallet",
            "label": "add1_del0",
            "offset": 1,
            "slot": "5",
            "type": "t_bool"
          },
          {
            "astId": 45,
            "contract": "contracts/MultiSig.sol:MultiSigWallet",
            "label": "changeNumConfirmations",
            "offset": 2,
            "slot": "5",
            "type": "t_bool"
          }
        ],
        "numberOfBytes": "192"
      },
      "t_uint256": {
        "encoding": "inplace",
        "label": "uint256",
        "numberOfBytes": "32"
      }
    }
  }
}